:0400000007EF04F012
:1000080000C015F0F2A20FD03150000A0BE13C0EEF
:10001800166E010E316E0B0ED76EDC0ED66ED58EB7
:10002800010E176EF292F0A010D03150000A0CE1C8
:100038000A0E166E020E316E2E6A0B0ECF6EDC0E95
:10004800CE6ECD80010E176EF090F2A418D00B0E74
:10005800D76EDC0ED66E3150010A10E11604006E20
:1000680000C016F0800E000A006E800E1618005CA4
:1000780003E3166A316AD59E010E176EF2949EA0AC
:1000880021D00B0ECF6EDC0ECE6E3150020A19E174
:100098002E50010F006E00C02EF0040E2E5C0FE3F0
:1000A8002E6A1604006E00C016F0800E000A006E5C
:1000B800800E1618005C03E3166A316ACD90010EB3
:0A00C800176E9E9015C000F01100A5
:0600D20000000000120016
:1000D8000F0E0C6E470E0D6E0D2EFED70C2EFCD794
:0600E80000000000120000
:0A00EE00210E0D6E0D2EFED712003C
:1000F80054BE02D0839601D0838654BC02D0839428
:1001080001D0838454BA02D0839201D0838254B838
:1001180002D0839001D0838045B002D0838801D07B
:100128008398838AD2DF839A54B602D0839601D00B
:10013800838654B402D0839401D0838454B202D00D
:10014800839201D0838254B002D0839001D08380FF
:1001580045B002D0838801D08398838AB6DF839A1A
:0C01680045A002D0B5DF01D0BEDF1200C0
:0C017400459053C054F0BEDF45801200DF
:0C0180000E0E0D6E0D2EFED700001200BA
:10018C00086A080E0C6E003408360450085ED8B0AD
:0E019C0002D00826D89000360C2EF5D712009F
:1001AA00086A096A100E0C6E0134083609360450C2
:1001BA00085E0550D8A0053C095ED8B007D00450A7
:1001CA0008260550D8B0053C0926D89000360136D5
:0601DA000C2EEAD7120012
:1001E0000FD0800E4E6E19D0C00E4E6E16D0940EEB
:1001F0004E6E13D0D40E4E6E10D0800E4E6E0DD0BB
:100200004E50010AEEE04E50020AEEE04E50030A54
:10021000EEE04E50040AEEE0F0D74F04006E4E5070
:10022000002600C04EF000C054F066DF4590526AD0
:1002300052505024E96E000E5120EA6EEE520BE04F
:1002400052505024E96E000E5120EA6EEECF53F06A
:0A02500091DF522AEDD7458012001D
:10025A00E80E046E030E056E46C000F047C001F0BA
:10026A009FDF00C04CF001C04DF04CC048F0E80ED2
:10027A00046E030E056E46C000F047C001F090DF21
:10028A0008C000F009C001F0640E046E000E056E8D
:10029A0087DF00C049F0640E046E000E056E46C08A
:1002AA0000F047C001F07CDF08C000F009C001F08F
:1002BA000A0E046E000E056E73DF00C04AF00A0EC5
:1002CA00046E000E056E46C000F047C001F068DFFC
:1002DA0008C000F009C001F000C04BF04C50000803
:1002EA0004E2300E4824386E02D0200E386E300EEA
:1002FA004924396E300E4A243A6E2E0E3B6E300E69
:10030A004B243C6EDF0E3D6E430E3E6E3F6A020E7C
:10031A004E6E070E4F6E380E506E000E516E5BDF3A
:02032A001200BF
:10032C00959A95989590959295949596839A83988D
:10033C008396839483928390C9DEC8DEC7DE838262
:10034C008380838AC0DE839AC1DE838ABCDE839A73
:10035C00BDDE838AB8DE839AB9DE8390838AB3DEEE
:10036C00839AB4DE838AAFDE839A83928386838AF0
:10037C00AADE839AABDE83968380838AA4DE839A7B
:10038C008390838AA0DE839AA1DE838A9CDE839A83
:10039C008380838A98DE839A99DE8390838A93DEA6
:1003AC00839A8386838483828380838A8CDE839A78
:0603BC008DDE45801200F9
:1003C2000900F5CFE6FF0006FBE10106F9E11200A4
:1003D20093809382F18CF18AF292F090F288F08607
:0603E200F28CF28E120005
:1003E800840ED56E0B0ED76EDC0ED66EF28AD59EB5
:1003F800310ECD6E0B0ECF6EDC0ECE6E9E909D80B4
:04040800CD90120081
:10040C00E00E416E070E426E460E436E000E446EB9
:10041C00C26A2D1C006E0050C116070EC012C08E91
:04042C00C280120078
:10043000220E0C6E086A096A0A6A0B6A0C06D8B4A6
:100440001FD0D8900B320A320932083203320232FE
:1004500001320032D8A0F2D70C06D8B409D004502B
:1004600008260550092206500A2207500B22EAD717
:10047000045008260550092206500A2207500B2274
:02048000120068
:100482000B6A0A6A096A086A0E6A0334083604505B
:10049200085E0550D8A0053C095E0650D8A0063C6F
:1004A2000A5E0750D8A0073C0B5EE86AD8A0010E8E
:1004B2000E5E0336070E0C6E0334083609360A3612
:1004C2000B360E36045003A012D0085E0550D8A099
:1004D200053C095E0650D8A0063C0A5E0750D8A02B
:1004E200073C0B5EE86AD8A0010E0E5E11D008260A
:1004F2000550D8B0053C09260650D8B0063C0A265D
:100502000750D8B0073C0B26E86AD8B0010E0E2679
:1005120003360C2ED1D70234083609360A360B368A
:100522000E36045003A012D0085E0550D8A0053C38
:10053200095E0650D8A0063C0A5E0750D8A0073CC8
:100542000B5EE86AD8A0010E0E5E11D00826055097
:10055200D8B0053C09260650D8B0063C0A260750FA
:10056200D8B0073C0B26E86AD8B0010E0E26023638
:10057200070E0C6E0234083609360A360B360E3672
:10058200045002A012D0085E0550D8A0053C095EB6
:100592000650D8A0063C0A5E0750D8A0073C0B5E66
:1005A200E86AD8A0010E0E5E11D008260550D8B018
:1005B200053C09260650D8B0063C0A260750D8B09A
:1005C200073C0B26E86AD8B0010E0E2602360C2E26
:1005D200D1D70134083609360A360B360E360450A6
:1005E20002A012D0085E0550D8A0053C095E065054
:1005F200D8A0063C0A5E0750D8A0073C0B5EE86A0A
:10060200D8A0010E0E5E11D008260550D8B0053CC8
:1006120009260650D8B0063C0A260750D8B0073C37
:100622000B26E86AD8B0010E0E260136070E0C6EB4
:100632000134083609360A360B360E36045001A04C
:1006420012D0085E0550D8A0053C095E0650D8A01D
:10065200063C0A5E0750D8A0073C0B5EE86AD8A0A9
:10066200010E0E5E11D008260550D8B0053C0926B1
:100672000650D8B0063C0A260750D8B0073C0B26D5
:10068200E86AD8B0010E0E2601360C2ED1D70034FE
:10069200083609360A360B360E36045001A012D03F
:1006A200085E0550D8A0053C095E0650D8A0063C5D
:1006B2000A5E0750D8A0073C0B5EE86AD8A0010E7C
:1006C2000E5E11D008260550D8B0053C092606500A
:1006D200D8B0063C0A260750D8B0073C0B26E86A79
:1006E200D8B0010E0E260036070E0C6E0034083606
:1006F20009360A360B360E36045000A012D0085EB8
:100702000550D8A0053C095E0650D8A0063C0A5EFA
:100712000750D8A0073C0B5EE86AD8A0010E0E5E17
:1007220011D008260550D8B0053C09260650D8B08D
:10073200063C0A260750D8B0073C0B26E86AD8B018
:10074200010E0E2600360C2ED1D700B00ED004506A
:1007520008260550D8B0053C09260650D8B0063CFC
:0C0762000A260750D8B0073C0B261200F6
:10076E00496A030E495C0AE249504724E16E000EC5
:10077E004820E26E200EE66E492AF3D749504724F0
:10078E00E16E000E4820E26EE66A490649504724A3
:10079E004A6E000E48204B6E0A0E046E46C000F0E4
:1007AE00EEDC08C000F0300E00264AC0E1FF4BC060
:1007BE00E2FF00C0E6FF0A0E046E46C000F0DFDC6A
:1007CE0000C046F00050000A01E102D04906DED713
:0207DE00120007
:1007E000830EC21646C000F000360090003600901E
:1007F0000050C212C5DCC282C2A201D0FDD7C4CF54
:0E08000001F0006AC3500012000E0112120037
:10080E0092EC04F096908490E8DDDCDD88DD010E3C
:10081E00546E6BDC0C0E546E68DCF1DD3B0EC16E5B
:10082E00010E4E6E010E4F6E220E506E000E516E68
:10083E00D0DC020E4E6E010E4F6E1B0E506E000E71
:10084E00516EC7DC1750010A53E116C046F0380E40
:10085E00476E000E486E84DF010E4E6E080E4F6E10
:10086E00390E506E000E516EB4DC010E4E6E0B0E34
:10087E004F6E180E506E000E516EABDC3150000AEA
:10088E002CE0466AA6DF00C02FF001C030F0000E4B
:10089E00026E036EE80E046E030E056E000E066EFB
:1008AE00076EBFDDFF0E046E030E056E000E066EA4
:1008BE00076EE0DD00C036F001C037F000C046F034
:1008CE0001C047F0C3DC3750010802E13650F4088E
:1008DE0002E2848001D084900AD0010E4E6E080E82
:1008EE004F6E320E506E000E516E73DC8490176A8E
:0408FE00A9D7FFD7A0
:1009240010EE16F0220E006E010E016E020EF66E2F
:0E093400090EF76E000EF86EE1EC01F01200F5
:0109020000F4
:0109030000F3
:030904007320005D
:0709070054656D703A2000F9
:0B090E0054656D706F3A2030307300AC
:0109190030AD
:01091A0000DC
:02091B000000DA
:01091D0000D9
:04091E002030300055
:020922000000D3
:020000040030CA
:0E000000000C1F1EFF8381FF0FC00FE00F409A
:00000001FF
